S01C00004156525F41546D65676133325F447269766572732E73726563EE
S11300000C942A000C9473020C949C020C94C50268
S11300100C9447000C9447000C9447000C94470040
S11300200C9447000C9447000C9430030C94EE029B
S11300300C9447000C9447000C9447000C94470020
S11300400C9447000C9447000C9447000C94470010
S11300500C94470011241FBECFE5D8E0DEBFCDBF0E
S113006010E0A0E6B0E0E0E3F9E002C005900D92F4
S1130070A838B107D9F720E0A8E8B0E001C01D9284
S1130080A739B207E1F70E9449000C9496040C9436
S1130090000080E690E00E9474000E94EF0068E88F
S11300A070E080E00E94FE006091880070918900F9
S11300B080E090E00E94720320E030E040EA5BE3DD
S11300C00E94B40320E030E040E050E40E94AF031B
S11300D018162CF480E690E00E949D00E0CF80E6A4
S11300E090E00E94BC00DBCFCF93DF930097D9F060
S11300F0FC0123812230C8F422812230C0F4EC01B7
S11301000E9484018B81882341F0813091F460E066
S1130110CE010E94310180E00DC061E0CE010E9459
S1130120310180E007C081E005C082E003C083E0C4
S113013001C080E0DF91CF9108950097A9F0FC0100
S11301402381223098F43281323090F4222339F022
S1130150213081F461E00E94310180E0089560E083
S11301600E94310180E0089581E0089582E00895BD
S113017083E0089580E008950097A9F0FC012381AD
S1130180223098F43281323090F4222339F0213035
S113019081F460E00E94310180E0089561E00E94F2
S11301A0310180E0089581E0089582E0089583E0BC
S11301B0089580E0089597B1907E892B87B90895BA
S11301C084B1811106C085B1882331F081E090E0CB
S11301D0089581E090E0089580E090E0089587B16B
S11301E08F71806487B986B1807D8B6086B98FB743
S11301F080688FBF86B1806886B90895CF93DF93F6
S11302006115710531F1883030F5EB010E94DB0096
S113021086B1886086B986B1806486B980E090E052
S1130220DC0103C00196A11DB11D349907C0803AB9
S113023026E8920721E0A207B105A0F3803A964888
S1130240A140B10551F00E94E0009983888380E0C9
S113025005C082E003C081E001C081E0DF91CF915D
S11302600895009709F448C0FC012081277030E00C
S1130270243031050CF042C0A081A695A695A69520
S1130280A77040814295469546954370818181705F
S1130290880F880F842B8A5F8770823088F16623E9
S11302A0B1F0613079F5220F331FF901EC59FF4F9A
S11302B00190F081E02D208181E090E002C0880F60
S11302C0991FAA95E2F7822B808380E00895220F7C
S11302D0331FF901EC59FF4F0190F081E02D20818B
S11302E081E090E002C0880F991FAA95E2F78095FB
S11302F08223808380E0089581E0089582E0089558
S113030084E0089580E00895009709F4E4C0DC01D6
S11303102C91277030E0243031050CF0DEC04C9174
S113032046954695469547706C91762F72957695CD
S11303307695737011966C916170660F660F672BDA
S1130340E62FF0E034970CF0CAC06130B9F138F010
S1130350623009F461C0633009F48DC0C2C0220F59
S1130360331FF901E459FF4F0190F081E02D6081C2
S113037021E030E0D90102C0AA0FBB1F4A95E2F781
S1130380AD01462B4083FC018081E82FE770F0E04B
S1130390EE0FFF1FEC59FF4F0190F081E02D90818B
S11303A0869586958695877002C0220F331F8A959D
S11303B0E2F720952923208380E00895220F331F3C
S11303C0F901E459FF4F0190F081E02D608121E0B3
S11303D030E0D90102C0AA0FBB1F4A95E2F7AD0174
S11303E0462B4083FC018081E82FE770F0E0EE0F9C
S11303F0FF1FEC59FF4F0190F081E02D908186950D
S113040086958695877002C0220F331F8A95E2F77E
S1130410292B208380E00895220F331FF901E4592A
S1130420FF4F0190F081E02D508121E030E0B901CF
S113043002C0660F771F4A95E2F7462F4095452381
S11304404083DC018C91E82FE770F0E0EE0FFF1F92
S1130450EC59FF4F0190F081E02D908186958695AF
S11304608695877002C0220F331F8A95E2F7292BE5
S1130470208380E00895220F331FF901E459FF4FD0
S11304800190F081E02D508121E030E0B90102C0FB
S1130490660F771F4A95E2F7462F40954523408320
S11304A0FC018081E82FE770F0E0EE0FFF1FEC59AC
S11304B0FF4F0190F081E02D908186958695869579
S11304C0877002C0220F331F8A95E2F720952923F3
S11304D0208380E0089581E0089582E0089584E017
S11304E0089580E008951F920F920FB60F92112481
S11304F02F933F934F935F936F937F938F939F9328
S1130500AF93BF93EF93FF93E0918E00F0918F0030
S1130510309709F00995FF91EF91BF91AF919F91A9
S11305208F917F916F915F914F913F912F910F9098
S11305300FBE0F901F9018951F920F920FB60F9237
S113054011242F933F934F935F936F937F938F93D4
S11305509F93AF93BF93EF93FF93E0918C00F0913F
S11305608D00309709F00995FF91EF91BF91AF91FC
S11305709F918F917F916F915F914F913F912F91B7
S11305800F900FBE0F901F9018951F920F920FB6E9
S11305900F9211242F933F934F935F936F937F9305
S11305A08F939F93AF93BF93EF93FF93E0918A0050
S11305B0F0918B00309709F00995FF91EF91BF916D
S11305C0AF919F918F917F916F915F914F913F91E7
S11305D02F910F900FBE0F901F9018951F920F929E
S11305E00FB60F9211242F933F934F935F936F9302
S11305F07F938F939F93AF93BF93EF93FF938091D8
S113060091008F5F80939100209194003091950028
S1130610232BA9F02091960030E0F901E258FF4F16
S1130620908189130CC0F901ED57FF4F808182BF7F
S113063010929100E0919400F09195000995FF913A
S1130640EF91BF91AF919F918F917F916F915F9146
S11306504F913F912F910F900FBE0F901F901895BF
S11306601F920F920FB60F9211242F933F934F9323
S11306705F936F937F938F939F93AF93BF93EF9306
S1130680FF93809190008F5F80939000209192005F
S113069030919300232BA9F02091960030E0F901CA
S11306A0EC58FF4F908189130CC0F901E758FF4FB4
S11306B080818CBF10929000E0919200F0919300A1
S11306C00995FF91EF91BF91AF919F918F917F9188
S11306D06F915F914F913F912F910F900FBE0F90AB
S11306E01F901895E89409C097FB3EF49095809567
S11306F0709561957F4F8F4F9F4F9923A9F0F92FE4
S113070096E9BB279395F695879577956795B79561
S1130710F111F8CFFAF4BB0F11F460FF1BC06F5F47
S11307207F4F8F4F9F4F16C0882311F096E911C059
S1130730772321F09EE8872F762F05C0662371F07A
S113074096E8862F70E060E02AF09A95660F771F8E
S1130750881FDAF7880F9695879597F908950E9470
S1130760210408F48FEF08950E94C7030C945C04DD
S11307700E944E0438F00E94550420F0952311F095
S11307800C9445040C944B0411240C9490040E9482
S11307906D0470F3959FC1F3950F50E0551F629F50
S11307A0F001729FBB27F00DB11D639FAA27F00DC6
S11307B0B11DAA1F649F6627B00DA11D661F829FED
S11307C02227B00DA11D621F739FB00DA11D621FD2
S11307D0839FA00D611D221F749F3327A00D611DEF
S11307E0231F849F600D211D822F762F6A2F1124D1
S11307F09F5750409AF0F1F088234AF0EE0FFF1F04
S1130800BB1F661F771F881F91505040A9F79E3F5A
S1130810510580F00C9445040C9490045F3FE4F37C
S1130820983ED4F3869577956795B795F795E795B0
S11308309F5FC1F7FE2B880F911D9695879597F9B9
S11308400895990F0008550FAA0BE0E8FEEF16165D
S11308501706E807F907C0F012161306E407F507B0
S113086098F0621B730B840B950B39F40A2661F024
S1130870232B242B252B21F408950A2609F4A140C7
S1130880A6958FEF811D811D089597F99F6780E8D4
S113089070E060E008959FEF80EC089500240A94CE
S11308A01616170618060906089500240A94121647
S11308B01306140605060895092E0394000C11F47A
S11308C0882352F0BB0F40F4BF2B11F460FF04C027
S11308D06F5F7F4F8F4F9F4F089557FD9058440F80
S11308E0551F59F05F3F71F04795880F97FB991F8B
S11308F061F09F3F79F08795089512161306140648
S1130900551FF2CF4695F1DF08C0161617061806D4
S1130910991FF1CF86957105610508940895E894AF
S1130920BB2766277727CB0197F90895F894FFCF63
S1130930430000013B003800350032003A00370024
S11309403400310004101F3E99C3FFFFFFFF041061
S10B09501F3E99F3BE7CF76A17
S9030000FC
